:060000000A128A1110280B
:10000800FE00030E83120313D5000A08D6007F08EA
:10001800D7000A128A1539290A128A111328831659
:1000280003130A168A114F220A128A11E3000A16CC
:100038008A1150220A128A11E4000A168A115122E2
:100048000A128A11E5000A168A1152220A128A1126
:10005800E600831790308400A4300A128A11F8272A
:100068000A128A118313DA308400E3300A128A11E3
:10007800F8270A128A115830840070300A128A113F
:10008800F8270A128A1183010A128A150F28831683
:1000980003132C088039B6002C08B1003107BC00C6
:1000A800AB1F5728582859283C143C0803195D28C9
:1000B8005E286D283C0A031D622863286B280030DF
:1000C800AC000030AB000030AA000030A900AB172C
:1000D80075280030AC000030AB000030AA000030BA
:1000E800A90030088039B1003108B6063008B100DF
:1000F8003107BB00AF1F8128822883283B143B08A7
:1001080003198728882897283B0A031D8C288D28DF
:1001180095280030B0000030AF000030AE0000304D
:10012800AD00AF179F280030B0000030AF0000309E
:10013800AE000030AD003B080319A328A428A92865
:100148003C08031DA828A928B2280030AC000030BC
:10015800AB000030AA000030A9008F2B2908A000AE
:100168002F080A168A1122230A128A1183160313EA
:100178002108C2002008C1004108B100B201B30142
:10018800B4013408BA003308B9003208B80031089D
:10019800B7004208B100B201B301B4013408C0008D
:1001A8003308BF003208BE003108BD002A08A0008D
:1001B8002E080A168A1122230A128A11831603139B
:1001C8002108C2002008C1004108B100B201B301F2
:1001D800B4013108B707320803110318013E0319A7
:1001E800F628B807330803110318013E0319FD2840
:1001F800B907340803110318013E03190429BA0783
:100208004208B100B201B301B4013108BD07320898
:1002180003110318013E03191229BE0733080311FD
:100228000318013E03191929BF07340803110318DD
:10023800013E03192029C0072B08A0002D080A1623
:100248008A1122230A128A11831603132108C20075
:100258002008C1004108B100B201B301B40131085E
:10026800B707320803110318013E03193C29B807E0
:10027800330803110318013E03194329B907340849
:1002880003110318013E03194A29BA074208B100AD
:10029800B201B301B4013108BD07320803110318D4
:1002A800013E03195829BE07330803110318013EFC
:1002B80003195F29BF07340803110318013E031906
:1002C8006629C0070830B1000310B70DB80DB90D85
:1002D800BA0DB10B68292A08A0002D080A168A1140
:1002E80022230A128A11831603132108C200200848
:1002F800C1004108B1004208B200B301B40131089D
:10030800B707320803110318013E03198C29B807EF
:10031800330803110318013E03199329B907340858
:1003280003110318013E03199A29BA072908A000E6
:100338002E080A168A1122230A128A118316031319
:100348002108C2002008C1004108B1004208B200DB
:10035800B301B4013108B707320803110318013E8D
:100368000319B729B807330803110318013E031905
:10037800BE29B907340803110318013E0319C5291A
:10038800BA070830B1000310B70DB80DB90DBA0D92
:10039800B10BC7292908A0002D080A168A112223A3
:1003A8000A128A11831603132108C2002008C1000B
:1003B8004108B1004208B200B301B4013108B707DF
:1003C800320803110318013E0319EB29B807330853
:1003D80003110318013E0319F229B9073408031160
:1003E8000318013E0319F929BA072A08A0002F08A3
:1003F8000A168A1122230A128A1183160313210866
:10040800C2002008C1004108B1004208B200B3018F
:10041800B4013108BD07320803110318013E03195E
:10042800162ABE07330803110318013E03191D2AB3
:10043800BF07340803110318013E0319242AC00713
:100448002B08A0002E080A168A1122230A128A11E4
:10045800831603132108C2002008C1004108B10017
:100468004208B200B301B4013108BD0732080311D4
:100478000318013E0319412ABE0733080311031864
:10048800013E0319482ABF07340803110318013E27
:1004980003194F2AC0072B08A0002F080A168A1133
:1004A80022230A128A11831603132108C200200886
:1004B800C1004108B1004208B200B301B4010830DC
:1004C8000310B10DB20DB30DB40DFF3E031D642A28
:1004D8003108BD07320803110318013E0319752AB4
:1004E800BE07330803110318013E03197C2ABF070E
:1004F800340803110318013E0319832AC00737087B
:10050800B1003808B2003908B3003A08B40018300E
:100518000310B40CB30CB20CB10CFF3E031D8C2AB3
:100528003108BD07320803110318013E03199D2A3B
:10053800BE07330803110318013E0319A42ABF0795
:10054800340803110318013E0319AB2AC007083009
:10055800B1000310B70DB80DB90DBA0DB10BAD2A26
:100568003C083B07B100B201B20D3108823EC10020
:1005780032080318013EFF3EC200DF2A0130B100F5
:100588000310BD0DBE0DBF0DC00DB10BC42ABA1F9F
:10059800CE2ACF2AD02A3D140130B1000310B70D5E
:1005A800B80DB90DBA0DB10BD22AFF30C107031827
:1005B800C20AFF30C207BF1FE22AE32AC22ABB01D0
:1005C800BA1FE72AE82A042BFF303705B100FF30AD
:1005D8003805B200FF303905B3007F303A05B40062
:1005E80034083304320431040319FB2AFC2AFF2A95
:1005F800BB01BB0A042B3D1C022B032B042BFC2A3A
:100608003B080319082B092B3A2B0130BD07003092
:1006180003180130BE07003003180130BF0700304F
:1006280003180130C007401C1A2B1B2B3A2B3D081E
:10063800B1003E08B2003F08B3004008B4000130E2
:10064800B500340DB40CB30CB20CB10CB50B252BA2
:100658003408C0003308BF003208BE003108BD00AE
:100668000130C1070318C20A0030C2074208803AA5
:10067800FF0080307F02031D432BFF304102031C23
:10068800462B472B522B7F3083160313C000803034
:10069800BF000030BE000030BD00832B831603135B
:1006A8004208803AFF0080307F02031D5D2B013035
:1006B80041020318602B612B6D2B00308316031346
:1006C800C0000030BF000030BE000030BD00B601E1
:1006D800832B831603134108BC00FF30BD05FF3090
:1006E800BE057F30BF050030C0053C1C7C2B7D2B30
:1006F8007E2BBF173C08B1000310310CC000360830
:10070800B1003108C0044008AC003F08AB003E0807
:10071800AA003D08A90008008312031323088039A2
:10072800AD002308A8002807B300A21F9C2B9D2B0F
:100738009E2B331433080319A22BA32BB22B330A95
:10074800031DA72BA82BB02B0030A3000030A2005C
:100758000030A1000030A000A217BA2B0030A3007F
:100768000030A2000030A1000030A0002708803926
:10077800A8002808AD062708A8002807B200A61F69
:10078800C62BC72BC82B321432080319CC2BCD2B00
:10079800DC2B320A031DD12BD22BDA2B0030A70019
:1007A8000030A6000030A5000030A400A617E42BF6
:1007B8000030A7000030A6000030A5000030A400DB
:1007C80032080319E82BE92BEE2B3308031DED2B18
:1007D800EE2BF72B0030A3000030A2000030A10060
:1007E8000030A000D42E2008F00026080A168A112E
:1007F800FB220A128A11710883120313B9007008C8
:10080800B8003808A800A901AA01AB012B08B1005B
:100818002A08B0002908AF002808AE003908A80047
:10082800A901AA01AB012B08B7002A08B6002908BC
:10083800B5002808B4002108F00025080A168A1116
:10084800FB220A128A11710883120313B900700877
:10085800B8003808A800A901AA01AB012808AE070A
:10086800290803110318013E03193B2CAF072A0876
:1008780003110318013E0319422CB0072B0803117A
:100888000318013E0319492CB1073908A800A9012A
:10089800AA01AB012808B407290803110318013E6F
:1008A8000319572CB5072A0803110318013E031929
:1008B8005E2CB6072B0803110318013E0319652C9B
:1008C800B7072208F00024080A168A11FB220A1228
:1008D8008A11710883120313B9007008B800380828
:1008E800A800A901AA01AB012808AE07290803112D
:1008F8000318013E0319812CAF072A0803110318B6
:10090800013E0319882CB0072B0803110318013E78
:1009180003198F2CB1073908A800A901AA01AB0156
:100928002808B407290803110318013E03199D2C50
:10093800B5072A0803110318013E0319A42CB607AA
:100948002B0803110318013E0319AB2CB707083015
:10095800A8000310AE0DAF0DB00DB10DA80BAD2C56
:100968002108F00024080A168A11FB220A128A11AB
:10097800710883120313B9007008B8003808A8007A
:100988003908A900AA01AB012808AE0729080311F4
:100998000318013E0319D12CAF072A0803110318C5
:1009A800013E0319D82CB0072B0803110318013E88
:1009B8000319DF2CB1072008F00025080A168A1150
:1009C800FB220A128A11710883120313B9007008F6
:1009D800B8003808A8003908A900AA01AB012808FE
:1009E800AE07290803110318013E0319FC2CAF07B1
:1009F8002A0803110318013E0319032DB0072B0819
:100A080003110318013E03190A2DB1070830A80085
:100A18000310AE0DAF0DB00DB10DA80B0C2D2008B5
:100A2800F00024080A168A11FB220A128A1171089A
:100A380083120313B9007008B8003808A8003908F1
:100A4800A900AA01AB012808AE0729080311031859
:100A5800013E0319302DAF072A0803110318013E80
:100A68000319372DB0072B0803110318013E03198A
:100A78003E2DB1072108F00026080A168A11FB222C
:100A88000A128A11710883120313B9007008B8009A
:100A98003808A8003908A900AA01AB012808B4073A
:100AA800290803110318013E03195B2DB5072A080D
:100AB80003110318013E0319622DB6072B08031111
:100AC8000318013E0319692DB7072208F00025080D
:100AD8000A168A11FB220A128A117108831203135B
:100AE800B9007008B8003808A8003908A900AA0198
:100AF800AB012808B407290803110318013E03199C
:100B0800862DB5072A0803110318013E03198D2DF8
:100B1800B6072B0803110318013E0319942DB707D4
:100B28002208F00026080A168A11FB220A128A11E6
:100B3800710883120313B9007008B8003808A800B8
:100B48003908A900AA01AB0108300310A80DA90DA6
:100B5800AA0DAB0DFF3E031DA92D2808B4072908CF
:100B680003110318013E0319BA2DB5072A0803110A
:100B78000318013E0319C12DB6072B0803110318EA
:100B8800013E0319C82DB7072E08A8002F08A90091
:100B98003008AA003108AB0018300310AB0CAA0CBF
:100BA800A90CA80CFF3E031DD12D2808B40729085D
:100BB80003110318013E0319E22DB5072A08031192
:100BC8000318013E0319E92DB6072B080311031872
:100BD800013E0319F02DB7070830A8000310AE0D29
:100BE800AF0DB00DB10DA80BF22D33083207A800D8
:100BF800A901A90D2808823EB80029080318013E5A
:100C0800FF3EB900242E0130A8000310B40DB50D25
:100C1800B60DB70DA80B092EB11F132E142E152EC5
:100C280034140130A8000310AE0DAF0DB00DB10D96
:100C3800A80B172EFF30B8070318B90AFF30B907F9
:100C4800B61F272E282E072EB201B11F2C2E2D2EAF
:100C5800492EFF302E05A800FF302F05A900FF30D0
:100C68003005AA007F303105AB002B082A0429047F
:100C780028040319402E412E442EB201B20A492EEF
:100C8800341C472E482E492E412E320803194D2E6A
:100C98004E2E7F2E0130B407003003180130B507FF
:100CA800003003180130B607003003180130B707C9
:100CB800371C5F2E602E7F2E3408A8003508A90047
:100CC8003608AA003708AB000130AC002B0DAB0C7E
:100CD800AA0CA90CA80CAC0B6A2E2B08B7002A0882
:100CE800B6002908B5002808B4000130B807031871
:100CF800B90A0030B9073908803AFF0080307F020E
:100D0800031D882EFF303802031C8B2E8C2E972E45
:100D18007F3083120313B7008030B6000030B5006F
:100D28000030B400C82E831203133908803AFF003C
:100D380080307F02031DA22E013038020318A52E31
:100D4800A62EB22E003083120313B7000030B6006F
:100D58000030B5000030B400AD01C82E8312031373
:100D68003808B300FF30B405FF30B5057F30B6054D
:100D78000030B705331CC12EC22EC32EB617330858
:100D8800A8000310280CB7002D08A8002808B704ED
:100D98003708A3003608A2003508A1003408A000CF
:100DA800080083160313A80028080319DC2EDD2E7B
:100DB800F12EA31FE02EE12EF12E2009AA00210911
:100DC800AB002209AC002309AD00AA0A0319AB0A3B
:100DD8000319AC0A0319AD0AF92E2308AD0022083D
:100DE800AC002108AB002008AA0023082204210433
:100DF8002004031D002F012F0A2F0030A30000300C
:100E0800A2000030A1000030A0008E2F9630A9006B
:100E18001A2F0130A4002408A90701300310AD0CD3
:100E2800AC0CAB0CAA0CFF3E031D122FFE302D0597
:100E3800031D1F2F202F0D2F3C2F0130A400240845
:100E4800A9070130AA07003003180130AB070030AA
:100E580003180130AC07003003180130AD0701302A
:100E68000310AD0CAC0CAB0CAA0CFF3E031D342FC9
:100E7800FF302D05031D412F422F212F4E2F01300A
:100E8800A9020130A4000310AA0DAB0DAC0DAD0DE5
:100E9800A40B472FAC1B512F522F582F0230290279
:100EA8000318572F582F432F29185B2F5C2F642FB7
:100EB800FF30AA05FF30AB057F30AC05FF30AD052C
:100EC8000310A90C2908A400A501A601A701183040
:100ED8000310A40DA50DA60DA70DFF3E031D6C2F35
:100EE8002408AA042508AB042608AC042708AD0486
:100EF80028080319802F812F862FA31F842F852F61
:100F0800862FAD172D08A3002C08A2002B08A100DE
:100F18002A08A000080083160313A601A11F952F15
:100F2800962F9D2FA009A109A00A0319A10AA601BD
:100F3800A60AA31FA02FA12FAA2FA209A309A20ABC
:100F48000319A30A0130A4002408A606A701A801D2
:100F5800200821040319B12FB22FE92FA501A50AF2
:100F6800C02F01300310A00DA10DFF3E031DB62FA9
:100F78000130A4002408A507A11FC32FC42FB52F33
:100F880001300310A70DA80DFF3E031DC52F210832
:100F98002302031DD12F20082202031CD42FD52F92
:100FA800DC2F2008A2022108031CA303A302271494
:100FB80001300310A10CA00CFF3E031DDD2F0130F2
:100FC800A502031DE82FE92FC42F26080319ED2FCA
:100FD800EE2FF32FA709A809A70A0319A80A2808BA
:100FE800A1002708A000080064008001840A040604
:080FF800031900340406F92F6F
:1010040000300A168A119B220A128A1501300A1628
:101014008A119B220A128A1508000A168A1165256C
:101024000A128A150F3083160313D900D90B182816
:101034001B28831203139F140F3083160313A1007C
:101044008030A2000A168A110E240A128A15023070
:1010540083160313A0000030A100E3300A168A119E
:1010640076230A128A15831603135D08C6005C08EA
:10107400C5005B08C4005A08C3005C30C7000230D6
:10108400C8000030C9000A128A159F220A128A1564
:1010940083160313A301A30A02300A168A11B72286
:1010A4000A128A155C3083160313A2000030A300D1
:1010B4000A168A1162240A128A15903083160313C1
:1010C400B00062080A168A11B6240A128A150A3078
:1010D40083160313A30002300A168A11B7220A12D8
:1010E4008A15903083160313A2000130A3000A1658
:1010F4008A1162240A128A15831603136003610499
:10110400031D852886282928E001E1015C30A1001F
:101114000030A2000A168A110E240A128A15292800
:101124000A128A1110280030831603132005A80020
:1011340000302105A90080302205AA007F30230554
:10114400AB002B082A0429042804031DAA28AB2871
:10115400B3280030A3000030A2000030A10000300A
:10116400A00000302405A80000302505A900803027
:101174002605AA007F302705AB002B082A04290482
:101184002804031DC628C728CF280030A700003034
:10119400A6000030A5000030A400A31FD228D32845
:1011A400F7280030A8000030A9000030AA008030E1
:1011B400AB002008A8022108031C210FE228E32821
:1011C400A9022208031C220FE828E928AA022308FE
:1011D400031C230FEE28EF28AB022B08A3002A08D8
:1011E400A2002908A1002808A000A71FFA28FB28AC
:1011F4001F290030A8000030A9000030AA00803068
:10120400AB002408A8022508031C250F0A290B2972
:10121400A9022608031C260F10291129AA0227084F
:10122400031C270F16291729AB022B08A7002A082D
:10123400A6002908A5002808A4008030A306803051
:10124400A70627082302031D312926082202031DAD
:10125400312925082102031D3129240820020318FD
:1012640034293529372903103829031408000C1FA1
:101274003C293D29B3290A168A1169220A128A15C2
:1012840070087104031D47294829A6290A168A11E2
:1012940053220A128A15710883120313DB007008A3
:1012A400DA004230BD00C830BC000030BB00003062
:1012B400BA003F30A300FB30A2000230A1000C3082
:1012C400A0005A08F0005B08F100F201F3010030BD
:1012D4000A128A15E7210A128A1573088312031366
:1012E400A7007208A6007108A5007008A4000A12DD
:1012F4008A1190230A128A15831203132308C1004A
:101304002208C0002108BF002008BE000A128A1566
:10131400D5230A128A15831203133D088316031377
:10132400DD00831203133C0883160313DC008312CD
:1013340003133B0883160313DB00831203133A08D9
:1013440083160313DA00B1290A168A1153220A12EA
:101354008A15710883120313D9007008D800831208
:101364000C138C1EB629B729DE2988012B301A06E6
:10137400031DBD29BE29C5290130D4005408831694
:101384000313E207DC292D301A06031DCA29CB29D1
:10139400D029013083160313E202DC2931301A0606
:1013A400031DD529D629DC29013083160313E00057
:1013B4000030E10083128C125708FF0056088A009F
:1013C400550E8300FE0E7E0E0900F80078080319FE
:1013D400EC29ED29012AF31FF029F129012A7009CA
:1013E400FA007109FB007209FC007309FD00FA0A96
:1013F4000319FB0A0319FC0A0319FD0A092A7308D5
:10140400FD007208FC007108FB007008FA00730804
:10141400720471047004031D102A112A1A2A003060
:10142400F3000030F2000030F1000030F0009E2A9A
:101434009630F9002A2A0130F4007408F9070130C3
:101444000310FD0CFC0CFB0CFA0CFF3E031D222ABE
:10145400FE307D05031D2F2A302A1D2A4C2A013017
:10146400F4007408F9070130FA070030031801305A
:10147400FB07003003180130FC070030031801306B
:10148400FD0701300310FD0CFC0CFB0CFA0CFF3EB5
:10149400031D442AFF307D05031D512A522A312A97
:1014A4005E2A0130F9020130F4000310FA0DFB0D3D
:1014B400FC0DFD0DF40B572AFC1B612A622A682AD5
:1014C400023079020318672A682A532A79186B2A8A
:1014D4006C2A742AFF30FA05FF30FB057F30FC05C7
:1014E400FF30FD050310F90C7908F400F501F6014D
:1014F400F70118300310F40DF50DF60DF70DFF3E4E
:10150400031D7C2A7408FA047508FB047608FC049D
:101514007708FD0478080319902A912A962AF31F64
:10152400942A952A962AFD177D08F3007C08F20078
:101534007B08F1007A08F0000800831603134608BC
:10154400A3004508A2004408A1004308A0000030FD
:10155400A7000030A6000030A5000030A4000A1245
:101564008A1595200A128A150318B92ABA2ADC2A80
:10157400831603134608A3004508A2004408A100EB
:101584004308A0000A168A1176220A128A158316C5
:1015940003132308C6002208C5002108C40020083C
:1015A400C300470884002D30831380000130CA0033
:1015B4004A08C707831603134608B7004508B60050
:1015C4004408B5004308B4000A168A1192260A1288
:1015D4008A15831603133508D4003408D30053083E
:1015E400A0005408A1000030A11BFF30A200A300FA
:1015F40001300A128A11D5260A128A15831603139A
:101604002308B7002208B6002108B5002008B4005A
:101614004608BB004508BA004408B9004308B800AE
:101624000A168A11D7220A128A1583160313370859
:10163400D8003608D7003508D6003408D500D101C3
:10164400D2014B2B413083160313AC002030AB0086
:101654000030AA000030A9005808B0005708AF00B5
:101664005608AE005508AD000A128A114B200A1222
:101674008A15831603132C08D8002B08D7002A08D0
:10168400D6002908D5000130D1070318D20A00304A
:10169400D2075208803ACA004908803A4A02031D18
:1016A400552B48085102031C582B592B242B831605
:1016B40003135808A7005708A6005608A5005508A4
:1016C400A4003F30A3000030A2000030A10000308D
:1016D400A0000A128A15A8250A128A158316031374
:1016E4002308B7002208B6002108B5002008B4007A
:1016F4000A168A1192260A128A15831603133508CC
:10170400CC003408CB005408B1005308B00047089B
:10171400B2000030B300B4000A168A110A270A1274
:101724008A15831603133108CE003008CD004D0806
:10173400CA004A08C7074908803AFF0080307F0280
:10174400031DA62B01304802031CA92BAA2BB52B81
:1017540083160313470884002E308313800001305E
:10176400CA004A08C707831603134C08B1004B0884
:10177400B0004708B2004908B4004808B3000A168C
:101784008A110A270A128A15831603133108D00016
:101794003008CF004F08CA004A08C707470884002A
:1017A4008313800108008312031341088039CB009E
:1017B4004108C2004207D200C01FE12BE22BE32BF9
:1017C400521452080319E72BE82BF82B520A031D75
:1017D400EC2BED2BF52B0030C1000030C0000030A5
:1017E400BF000030BE00C017C101002C0030C10092
:1017F4000030C0000030BF000030BE003D0880391A
:10180400C2004208CB063D08C2004207D300BC1FF9
:101814000C2C0D2C0E2C531453080319122C132CBE
:10182400232C530A031D172C182C202C0030BD0028
:101834000030BC000030BB000030BA00BC17BD0152
:101844002B2C0030BD000030BC000030BB00003049
:10185400BA003D083C043B043A04031D322C332CEB
:101864004C2C0030C1000030C0000030BF000030FC
:10187400BE008030C0047F30C1044B08C20042085F
:10188400C1044108BD004008BC003F08BB003E083D
:10189400BA00A72D5208031D502C512C5A2C00308D
:1018A400BD000030BC000030BB000030BA00A72DE2
:1018B4005208C200C3014308C50053084202C400D1
:1018C400031CC50344087F3ECC0045080318013EB1
:1018D400003ECD004108CA004008C9003F08C800C6
:1018E4003E08C7000030C1000030C0000030BF0017
:1018F4000030BE000030D1000030D0000030CF00F6
:101904000030CE00D301D02C530803198A2C8B2C21
:10191400AB2C0130C2000310C70DC80DC90DCA0D90
:10192400C20B8D2C0130C2000310BE0DBF0DC00DC3
:10193400C10DC20B962CD11FA02CA12CA22C3E149D
:101944000130C2000310CE0DCF0DD00DD10DC20B4E
:10195400A42C3D084A02031DB92C3C084902031D6E
:10196400B92C3B084802031DB92C3A084702031C52
:10197400BC2CBD2CCC2C51173A08C7023B08031CC5
:101984003B0FC8023C08031C3C0FC9023D08031C62
:101994003D0FCA020130C2004208D3071A30530275
:1019A400031CD52CD62C862C4A0849044804470429
:1019B4000319DD2CDE2CFD2C4E14FD2C0130C2004D
:1019C4000310BE0DBF0DC00DC10DC20BE22CD11F03
:1019D400EC2CED2CEE2C3E140130C2000310CE0D85
:1019E400CF0DD00DD10DC20BF02CFF30CC07031856
:1019F400CD0AFF30CD07C01F002D012DE02CD301EF
:101A0400D11F052D062D222DFF304E05C200FF30BB
:101A14004F05C300FF305005C4007F305105C50099
:101A240045084404430442040319192D1A2D1D2D9D
:101A3400D301D30A222D3E1C202D212D222D1A2D17
:101A440053080319262D272D582D0130BE070030C9
:101A540003180130BF07003003180130C0070030FD
:101A640003180130C107411C382D392D582D3E086B
:101A7400C2003F08C3004008C4004108C50001304B
:101A8400C600450DC50CC40CC30CC20CC60B432DBB
:101A94004508C1004408C0004308BF004208BE0016
:101AA4000130CC070318CD0A0030CD074D08803A29
:101AB400FF0080307F02031D612DFF304C02031CA8
:101AC400642D652D732DFF3083120313CC00003079
:101AD400CD000030C1000030C0000030BF00003035
:101AE400BE00831203134D08803AFF0080307F024A
:101AF400031D7E2D01304C020318812D822D8F2D64
:101B040083120313CC01CD010030C1000030C000AA
:101B14000030BF000030BE00CB01831203134C0819
:101B2400D200521C962D972D992DC0179D2D7F30D4
:101B3400C2004208C0055208C2000310420CC10092
:101B44004B08C2004208C104432C08008316031347
:101B540023088039B0002308A8002807B200A21F78
:101B6400B42DB52DB62D321432080319BA2DBB2D60
:101B7400CB2D320A031DBF2DC02DC82D0030A3006C
:101B84000030A2000030A1000030A000A217A30181
:101B9400D32D0030A3000030A2000030A10000309B
:101BA400A00027088039B100310830060319DB2D65
:101BB400DC2DDD2D30172708A8002807B100A61F4B
:101BC400E42DE52DE62D311431080319EA2DEB2D12
:101BD400FB2D310A031DEF2DF02DF82D0030A70049
:101BE4000030A6000030A5000030A400A617A7010D
:101BF400032E0030A7000030A6000030A5000030FE
:101C0400A400320831020318082E092E2F2E301F8B
:101C14000C2E0D2E112E8030A8002808B006320894
:101C2400B3003108B2003308B1002008B30024081F
:101C3400A0003308A4002108B3002508A10033083C
:101C4400A5002208B3002608A2003308A600230832
:101C5400B3002708A3003308A700B3013108A80084
:101C6400A9012908AB0032082802AA00031CAB030F
:101C74002B08803AFF0080307F02031D432E1A3068
:101C84002A02031C462E472E7E2E83160313230896
:101C9400220421042004031D502E522E0130532E01
:101CA4000030B3000030A3000030A2000030A100D7
:101CB4000030A0003108B200862E331C622E632E41
:101CC4006A2E3308A8000310280C0138B3006C2EC8
:101CD4000310B30C201C6F2E702E712EB31701301D
:101CE400A800230DA30CA20CA10CA00CA80B732E0E
:101CF4000130A8002808B207831603133108320202
:101D0400031C852E862E5F2E301B892E8A2ED32E01
:101D14003208031D8E2E8F2E982E0030A300003023
:101D2400A2000030A1000030A000FF2F2408A0076B
:101D3400250803110318013E0319A12EA107260843
:101D440003110318013E0319A82EA2072708031143
:101D54000318013E0319AF2EA307231CB22EB32E82
:101D6400872F331CB62EB72EBE2E3308A8000310BF
:101D7400280C0138B300C02E0310B30C201CC32E52
:101D8400C42EC52EB3170130A800230DA30CA20C3A
:101D9400A10CA00CA80BC72E0130A8002808B2077C
:101DA400872F2308803AFF002708803A7F02031D0B
:101DB400E52E26082202031DE52E25082102031D17
:101DC400E52E240820020318E82EE92E412FFF30C7
:101DD400A800FF30A900FF30AA00FF30AB002408A0
:101DE400AC002508AD002608AE002708AF00200887
:101DF400AC022108031C210F002F012FAD02220881
:101E0400031C220F062F072FAE022308031C230FE7
:101E14000C2F0D2FAF022C08A8072D0803182D0F27
:101E2400142F152FA9072E0803182E0F1A2F1B2F56
:101E3400AA072F0803182F0AAB072B08A3002A08A8
:101E4400A2002908A1002808A0008030A8002808C2
:101E5400B006B309B30A3308031D312F322F4F2FB5
:101E64000130A007003003180130A1070030031827
:101E74000130A207003003180130A3074F2F2408B4
:101E8400A0022508031C250FA1022608031C260F07
:101E9400A2022708031C270FA302230822042104FB
:101EA4002004031D562F572F832F3308031D5B2F48
:101EB4005C2F832F0030A3000030A2000030A1006B
:101EC4000030A000FF2F0130A8000310A00DA10DC9
:101ED400A20DA30DA80B672FB31F712F722F732FA1
:101EE4002014331C762F772F7A2F0314B30D7C2FF5
:101EF4000310B30D32080319802F812F832F013073
:101F0400B202A21F862F872F652FB101B31F8B2F1B
:101F14008C2F9A2F33087F390319912F922F952FE5
:101F2400B101B10A9A2F201C982F992F9A2F922F22
:101F3400310803199E2F9F2FD32F0130A0070030A3
:101F440003180130A107003003180130A207003044
:101F540003180130A307231CB02FB12FD32F20085F
:101F6400A8002108A9002208AA002308AB00013018
:101F7400AC002B0DAB0CAA0CA90CA80CAC0BBB2F02
:101F84002B08A3002A08A2002908A1002808A00001
:101F9400320A0319CE2FCF2FD32F0130A8002808DF
:101FA400B207320A0319D72FD82FDD2F3208031DA9
:101FB400DC2FDD2FEB2F0030A3000030A200003017
:101FC400A1000030A0003208031DE92FEA2FEB2FF7
:101FD400B001321CEE2FEF2FF12FA217F52F7F3017
:101FE400A8002808A2053208A8000310280CA300A2
:101FF400B01FFD2FFE2FFF2FA3170800FF1B0A2879
:1020040083137F1883170008840A0319FF0A080042
:1020140010308A000408840A8207003450344F3494
:1020240054343A34203420342034203443344F346C
:0C2034004E3454343A340034203400346C
:10249E000034003401340034831203131E08F2009A
:1024AE00F3017208F0007308F1000800831603139D
:1024BE00A000981C632A642A602A20088312031342
:1024CE0099000800831203131F0CF200720C0F39CF
:1024DE00F300F4017308F0007408F100080083168D
:1024EE000313230822042104200403197F2A802ABF
:1024FE00822A8030A306080083160313A1008312DC
:10250E00031307168316031321088312031388007F
:10251E0087160C3083160313A000A00B942A00001C
:10252E00831203138712080083160313A20083126B
:10253E000313071283160313220883120313880052
:10254E008716073083160313A1007C30A000A00B62
:10255E00AE2AA10BAE2A00008312031387120800C5
:10256E0083160313A4002403031DBE2ABF2AC82A00
:10257E0023080F3980380A168A119B220A168A11EF
:10258E00D62A02302406031DCD2ACE2AD62A2308A7
:10259E000F39C0380A168A119B220A168A110800B2
:1025AE00803083160313B7063B08A3003A08A20037
:1025BE003908A1003808A0003708A7003608A60081
:1025CE003508A5003408A4000A128A15A8250A1693
:1025DE008A11831603132308B7002208B6002108B8
:1025EE00B5002008B4000800F800F401F5017008E9
:1025FE00F200F3017208F6007308F700781C082B3E
:10260E00092B0F2B7608F4070318F50A7708F50740
:10261E0001300310F60DF70DFF3E031D102B0310B6
:10262E00F80C7808031D1C2B1D2B052B7508F100CB
:10263E007408F000080083160313A800A401A50176
:10264E002008A200A3012208A6002308A700281C28
:10265E00312B322B382B2608A4070318A50A27087E
:10266E00A50701300310A60DA70DFF3E031D392B44
:10267E000310A80C2808031D452B462B2E2B2508CE
:10268E00A1002408A0000800831203131F083F397D
:10269E0040389F00831603131F129F122008A200BA
:1026AE00A20DA20D831203131F0883160313220615
:1026BE00C3392206831203139F00831603139F133D
:1026CE000F3083160313A200A20B6B2B6E2B8312FB
:1026DE0003131F140C13831603130C170800831611
:1026EE000313A500831203139F187E2B7F2BBC2B85
:1026FE00013083160313DE070318DF0A0030DF07ED
:10270E005F08803AA2002108803A2202031D912B15
:10271E0020085E02031C942B952B992B8316031312
:10272E00DE01DF01831603135E08A20022072507D0
:10273E00A3002308840083130008A400A40DA40D95
:10274E00831203131F08831603132406C3392406AA
:10275E00831203139F00203083160313A200A20BD3
:10276E00B62B0000831203139F1408008316031365
:10277E00181218158316031787158312031398174B
:10278E0018131816831603139816831203138C123C
:10279E00831603138C162E08B2002F08B3003008D0
:1027AE00B4003108B50002300310B20DB30DB40DF4
:1027BE00B50DFF3E031DDB2B3508A3003408A20028
:1027CE003308A1003208A0000030A7003D30A6005B
:1027DE000930A5000030A4000A168A112A260A160E
:1027EE008A11831603132008FF3EB6002108031832
:1027FE00013EFF3EB70001303702003003193602AA
:10280E0003180A2C0B2C0D2C360899000800831681
:10281E000313A601A7013F2C8316031326082107D5
:10282E00A4002208A3000318A30AA61F1F2CA303AB
:10283E00831603132308A500250883120313FF0034
:10284E008316031324088400831203130A168A11B5
:10285E0000200A168A110A168A115D220A168A119A
:10286E00013083160313A6070318A70A0030A70723
:10287E0026082107A4002208A3000318A30AA61FF6
:10288E00492CA303831603132308A50025088312DE
:10289E000313FF008316031324088400831203130B
:1028AE000A168A1100200A168A11003A031D602C9E
:1028BE00612C132C080083160313A701A801932C77
:1028CE008316031327082207A5002308A400031864
:1028DE00A40AA71F732CA403831603132408A600AF
:1028EE00260883120313FF008316031325088400A2
:1028FE00831203130A168A1100200A168A110A1669
:10290E008A1183220A168A11013083160313A70730
:10291E000318A80A0030A80727082207A5002308D5
:10292E00A4000318A40AA71F9D2CA4038316031347
:10293E002408A600260883120313FF008316031330
:10294E0025088400831203130A168A1100200A1622
:10295E008A11003A031DB42CB52C672C080083167F
:10296E000313B400B501B60135083007B1003108C4
:10297E0084000A30A0000030A1003408B200B30178
:10298E003208A2003308A3000A168A110A250A1675
:10299E008A11831603132008303E831780000130FE
:1029AE00B5070318B60A0030B6070A30A00000308B
:1029BE00A1003408B100B2013108A2003208A30010
:1029CE000A128A118F270A168A11831603132008FA
:1029DE00B4003408031DF42CF52CBB2C350830073D
:1029EE00B10031088400831780013008A000013047
:1029FE00A1003608A3003508A2000A168A11822704
:102A0E000A168A11080083160313A601A31F102DA0
:102A1E00112D182DA209A309A20A0319A30AA601B2
:102A2E00A60AA11F1B2D1C2D212DA009A109A00A4C
:102A3E000319A10A200821040319262D272D562D2E
:102A4E00A501A50A352D01300310A00DA10DFF3EE5
:102A5E00031D2B2D0130A4002408A507A11F382D1E
:102A6E00392D2A2D21082302031D3F2D2008220275
:102A7E00031C422D432D492D2008A2022108031CC0
:102A8E00A303A30201300310A10CA00CFF3E031DF3
:102A9E004A2D0130A502031D552D562D392D260820
:102AAE0003195A2D5B2D602DA209A309A20A031941
:102ABE00A30A2308A1002208A000080000308316F4
:102ACE000313B1000030B0002530AF008030AE00EF
:102ADE000A168A11BD230A168A11033083160317AC
:102AEE008800890183160313890188018312031359
:102AFE008801FF30831603138500831203138501AB
:102B0E0083160313071287128312031387010F30E4
:102B1E008900003083160313A000A1000A168A1143
:102B2E004B230A168A110A168A11C6250A168A110D
:102B3E000A128A1502200A168A1183160313A3019C
:102B4E00A30A01300A168A11B7220A168A11013019
:102B5E0083160313A2008030A3000A168A11622482
:102B6E000A168A118316031308108810081188118B
:102B7E000F178F160F120F140B178B1708008312D7
:102B8E00031388011A3083160313A400F730A30031
:102B9E00A30BCF2DA40BCF2DD42D30300A168A11B6
:102BAE009B220A168A11073083160313A4007C3069
:102BBE00A300A30BE02DA40BE02D000030300A166D
:102BCE008A119B220A168A110F3083160313A40052
:102BDE004730A300A30BF12DA40BF12D30300A16B4
:102BEE008A119B220A168A1138300A168A119B22E4
:102BFE000A168A1110300A168A119B220A168A1199
:102C0E0001300A168A119B220A168A1106300A16FC
:102C1E008A119B220A168A1110300A168A119B22DB
:102C2E000A168A110C300A168A119B220A168A116C
:102C3E00823083160313A400DD30A300A30B252ED0
:102C4E00A40B252E0800003083160313AC000030B1
:102C5E00AB000030AA000030A90023082204210492
:102C6E00200403193B2E3C2E892EAD01AD0A4C2EAD
:102C7E000130A8000310A00DA10DA20DA30DA80BED
:102C8E00412E0130A8002808AD07A31F4F2E502E4D
:102C9E003F2E0130A8000310A90DAA0DAB0DAC0DEF
:102CAE00A80B522E23082702031D672E2208260288
:102CBE00031D672E21082502031D672E20082402FE
:102CCE00031C6A2E6B2E7A2E2008A4022108031CE8
:102CDE00210FA5022208031C220FA6022308031CA3
:102CEE00230FA702291401300310A30CA20CA10C70
:102CFE00A00CFF3E031D7B2E0130AD02031D882E5E
:102D0E00892E502E2C08A3002B08A2002A08A10001
:102D1E002908A0000800031083160313360D370D83
:102D2E00BD003D08031D9C2E9D2EA62E0030B70023
:102D3E000030B6000030B5000030B400092F340862
:102D4E00B8003508B9003608BA003708BB001F3086
:102D5E000310BB0CBA0CB90CB80CFF3E031DAF2E02
:102D6E003808BC00B617FF30B405FF30B505FF308C
:102D7E00B6050030B7059630BD02BD1FC72EC82E52
:102D8E00E22E3D08803A973E0318CE2ECF2ED02E3F
:102D9E009D2E01300310B70CB60CB50CB40CFF3ED3
:102DAE00031DD12E0130B8003808BD07031DE02EDB
:102DBE00E12ED02EF92E20303D02031CE72EE82EF8
:102DCE00F42E9D2E0130B8000310B40DB50DB60DC6
:102DDE00B70DB80BEB2E0130BD023D08031DF82ECA
:102DEE00F92EE92E3C080319FD2EFE2E092FB409EB
:102DFE00B509B609B709B40A0319B50A0319B60A13
:102E0E000319B70A080083160313B601B701402F42
:102E1E0036083207B500350884000A30A0000030AD
:102E2E00A1003108A3003008A2000A168A110A2553
:102E3E000A168A11831603132008303E831380006E
:102E4E000130B6070318B70A0030B7070A30A000E2
:102E5E000030A1003108A3003008A2000A128A1126
:102E6E008F270A168A11831603132108B100200832
:102E7E00B00030083104031D452F462F0F2F572F5A
:102E8E008316031336083207B50035088400303038
:102E9E00831380000130B6070318B70A0030B70756
:102EAE003708803AB5003408803A3502031D612F89
:102EBE0033083602031C642F652F472F8316031326
:102ECE003208A0000030A1003708A3003608A20087
:102EDE000A168A1182270A168A11831603133608D8
:102EEE003207B50035088400831380013708B1001E
:102EFE003608B000080083160313AC01AD0122089A
:102F0E00FF3EAE0023080318013EFF3EAF00F12F37
:102F1E00831603132C082007A5002108A40003180C
:102F2E00A40AAC1F9B2FA403831603132408A60028
:102F3E00250884008317261C83130008AB002E0877
:102F4E002007A5002108A4000318A40AAE1FB02F65
:102F5E00A403831603132408A600250884008317F0
:102F6E00261C83130008A7002C082007A90021089F
:102F7E00A8000318A80AAC1FC52FA80383160313B5
:102F8E002808AA002908840083172A1C83132708FF
:102F9E0080002E082007A5002108A4000318A40A0B
:102FAE00AE1FDA2FA403831603132408A6002508E8
:102FBE0084008317261C83132B0880000130AC0776
:102FCE000318AD0A0030AD07FF30AE070318AF0A85
:102FDE00FF30AF072D08803AA4002F08803A240254
:102FEE00031DFB2F2E082C02031CFE2FFF2F8F2FED
:022FFE000800C9
:08400000FF3FFF3FFF3FFF3FC0
:04400E00D420FF3F7C
:00000001FF
